{"abi":[{"type":"constructor","inputs":[],"stateMutability":"nonpayable"},{"type":"function","name":"drip","inputs":[{"name":"token","type":"address","internalType":"address"}],"outputs":[],"stateMutability":"nonpayable"},{"type":"function","name":"owner","inputs":[],"outputs":[{"name":"","type":"address","internalType":"address"}],"stateMutability":"view"},{"type":"function","name":"renounceOwnership","inputs":[],"outputs":[],"stateMutability":"nonpayable"},{"type":"function","name":"setIsCooldownEnabled","inputs":[{"name":"newIsCooldownEnabled","type":"bool","internalType":"bool"}],"outputs":[],"stateMutability":"nonpayable"},{"type":"function","name":"transferOwnership","inputs":[{"name":"newOwner","type":"address","internalType":"address"}],"outputs":[],"stateMutability":"nonpayable"},{"type":"event","name":"CooldownUpdated","inputs":[{"name":"isCooldownEnabled","type":"bool","indexed":false,"internalType":"bool"}],"anonymous":false},{"type":"event","name":"OwnershipTransferred","inputs":[{"name":"previousOwner","type":"address","indexed":true,"internalType":"address"},{"name":"newOwner","type":"address","indexed":true,"internalType":"address"}],"anonymous":false},{"type":"error","name":"CooldownNotFinished","inputs":[{"name":"timestamp","type":"uint256","internalType":"uint256"}]},{"type":"error","name":"OwnableInvalidOwner","inputs":[{"name":"owner","type":"address","internalType":"address"}]},{"type":"error","name":"OwnableUnauthorizedAccount","inputs":[{"name":"account","type":"address","internalType":"address"}]},{"type":"error","name":"ReentrancyGuardReentrantCall","inputs":[]}],"bytecode":{"object":"0x6080806040523460825760016000553315606c5760015460405190336001600160a01b0382167f8be0079c531659141344cd1fd0a4f28419497f9722a3daafe3b4186f6b6457e0600080a36001600160a81b0319163360ff60a01b19161760015561036b90816100888239f35b631e4fbdf760e01b815260006004820152602490fd5b600080fdfe60406080815260048036101561001457600080fd5b600091823560e01c806318a96a891461029c57806367a5cd061461017f578063715018a61461011e5780638da5cb5b146100f15763f2fde38b1461005757600080fd5b346100ed5760203660031901126100ed576001600160a01b038235818116939192908490036100e957610088610309565b83156100d3575050600154826bffffffffffffffffffffffff60a01b821617600155167f8be0079c531659141344cd1fd0a4f28419497f9722a3daafe3b4186f6b6457e0600080a380f35b51631e4fbdf760e01b8152908101849052602490fd5b8480fd5b8280fd5b83823461011a578160031936011261011a5760015490516001600160a01b039091168152602090f35b5080fd5b833461017c578060031936011261017c57610137610309565b600180546001600160a01b031981169091556000906001600160a01b03167f8be0079c531659141344cd1fd0a4f28419497f9722a3daafe3b4186f6b6457e08280a380f35b80fd5b5091903461011a57602036600319011261011a5780356001600160a01b038116908190036100ed57600283541461028d576002835533835260026020528383205460ff60015460a01c1680610265575b61024f5750803b156100ed5790828092602486518095819363b160ab9f60e01b835233878401525af1801561024557610219575b8284338252600260205242908220556001815580f35b67ffffffffffffffff8211610232575082523880610203565b634e487b7160e01b835260419052602482fd5b84513d85823e3d90fd5b82602491865191637c7a7de960e11b8352820152fd5b50610e10810180821161027a574211156101cf565b634e487b7160e01b855260118452602485fd5b508251633ee5aeb560e01b8152fd5b5090346100ed5760203660031901126100ed5735908115158092036100ed577f27c64d5e8eecea170bac00a427c232c452155c520a62676b54b2f185d08a0673916020916102e8610309565b6001805460ff60a01b191660a084901b60ff60a01b1617905551908152a180f35b6001546001600160a01b0316330361031d57565b60405163118cdaa760e01b8152336004820152602490fdfea26469706673582212208293ba8cff5c3869d27ab6a0b7c13c57551223cbc442ef62c19d533be9436b7264736f6c63430008190033","linkReferences":{}},"methodIdentifiers":{"drip(address)":"67a5cd06","owner()":"8da5cb5b","renounceOwnership()":"715018a6","setIsCooldownEnabled(bool)":"18a96a89","transferOwnership(address)":"f2fde38b"},"id":71}