{"abi":[{"type":"constructor","inputs":[{"name":"_router","type":"address","internalType":"address"}],"stateMutability":"nonpayable"},{"type":"receive","stateMutability":"payable"},{"type":"function","name":"createProposal","inputs":[{"name":"destinationChainSelector","type":"uint256","internalType":"uint256"},{"name":"originChainSelector","type":"uint256","internalType":"uint256"},{"name":"endTimestamp","type":"uint256","internalType":"uint256"},{"name":"title","type":"string","internalType":"string"},{"name":"description","type":"string","internalType":"string"},{"name":"tokenName","type":"string","internalType":"string"}],"outputs":[],"stateMutability":"payable"},{"type":"function","name":"createProposalFee","inputs":[],"outputs":[{"name":"","type":"uint256","internalType":"uint256"}],"stateMutability":"view"},{"type":"function","name":"deleteProposalById","inputs":[{"name":"proposalId","type":"bytes32","internalType":"bytes32"}],"outputs":[],"stateMutability":"nonpayable"},{"type":"function","name":"deleteProposalByIndex","inputs":[{"name":"proposalIndex","type":"uint256","internalType":"uint256"}],"outputs":[],"stateMutability":"nonpayable"},{"type":"function","name":"deleteProposalByIndexOptimized","inputs":[{"name":"proposalIndex","type":"uint256","internalType":"uint256"}],"outputs":[],"stateMutability":"nonpayable"},{"type":"function","name":"deleteTokenData","inputs":[{"name":"tokenName","type":"string","internalType":"string"},{"name":"chainSelectors","type":"uint256[]","internalType":"uint256[]"}],"outputs":[],"stateMutability":"nonpayable"},{"type":"function","name":"getAmountDelegatedTokens","inputs":[{"name":"user","type":"address","internalType":"address"},{"name":"token","type":"address","internalType":"address"},{"name":"proposalId","type":"bytes32","internalType":"bytes32"},{"name":"isGetPastVotesEnabled","type":"bool","internalType":"bool"}],"outputs":[{"name":"","type":"uint256","internalType":"uint256"}],"stateMutability":"view"},{"type":"function","name":"getProposalIdsLength","inputs":[],"outputs":[{"name":"","type":"uint256","internalType":"uint256"}],"stateMutability":"view"},{"type":"function","name":"getSlicedProposals","inputs":[{"name":"startIndex","type":"uint256","internalType":"uint256"},{"name":"endIndex","type":"uint256","internalType":"uint256"}],"outputs":[{"name":"","type":"tuple[]","internalType":"struct EquitoVote.Proposal[]","components":[{"name":"startTimestamp","type":"uint256","internalType":"uint256"},{"name":"endTimestamp","type":"uint256","internalType":"uint256"},{"name":"numVotesYes","type":"uint256","internalType":"uint256"},{"name":"numVotesNo","type":"uint256","internalType":"uint256"},{"name":"numVotesAbstain","type":"uint256","internalType":"uint256"},{"name":"title","type":"string","internalType":"string"},{"name":"description","type":"string","internalType":"string"},{"name":"id","type":"bytes32","internalType":"bytes32"},{"name":"tokenName","type":"string","internalType":"string"},{"name":"startBlockNumber","type":"uint256","internalType":"uint256"},{"name":"originChainSelector","type":"uint256","internalType":"uint256"}]}],"stateMutability":"view"},{"type":"function","name":"getSlicedReversedProposals","inputs":[{"name":"startIndex","type":"int256","internalType":"int256"},{"name":"endIndex","type":"int256","internalType":"int256"}],"outputs":[{"name":"","type":"tuple[]","internalType":"struct EquitoVote.Proposal[]","components":[{"name":"startTimestamp","type":"uint256","internalType":"uint256"},{"name":"endTimestamp","type":"uint256","internalType":"uint256"},{"name":"numVotesYes","type":"uint256","internalType":"uint256"},{"name":"numVotesNo","type":"uint256","internalType":"uint256"},{"name":"numVotesAbstain","type":"uint256","internalType":"uint256"},{"name":"title","type":"string","internalType":"string"},{"name":"description","type":"string","internalType":"string"},{"name":"id","type":"bytes32","internalType":"bytes32"},{"name":"tokenName","type":"string","internalType":"string"},{"name":"startBlockNumber","type":"uint256","internalType":"uint256"},{"name":"originChainSelector","type":"uint256","internalType":"uint256"}]}],"stateMutability":"view"},{"type":"function","name":"getSlicedTokenNames","inputs":[{"name":"startIndex","type":"uint256","internalType":"uint256"},{"name":"endIndex","type":"uint256","internalType":"uint256"}],"outputs":[{"name":"","type":"string[]","internalType":"string[]"}],"stateMutability":"view"},{"type":"function","name":"getTokenNamesLength","inputs":[],"outputs":[{"name":"","type":"uint256","internalType":"uint256"}],"stateMutability":"view"},{"type":"function","name":"owner","inputs":[],"outputs":[{"name":"","type":"address","internalType":"address"}],"stateMutability":"view"},{"type":"function","name":"peers","inputs":[{"name":"","type":"uint256","internalType":"uint256"}],"outputs":[{"name":"lower","type":"bytes32","internalType":"bytes32"},{"name":"upper","type":"bytes32","internalType":"bytes32"}],"stateMutability":"view"},{"type":"function","name":"proposalIds","inputs":[{"name":"","type":"uint256","internalType":"uint256"}],"outputs":[{"name":"","type":"bytes32","internalType":"bytes32"}],"stateMutability":"view"},{"type":"function","name":"proposals","inputs":[{"name":"id","type":"bytes32","internalType":"bytes32"}],"outputs":[{"name":"startTimestamp","type":"uint256","internalType":"uint256"},{"name":"endTimestamp","type":"uint256","internalType":"uint256"},{"name":"numVotesYes","type":"uint256","internalType":"uint256"},{"name":"numVotesNo","type":"uint256","internalType":"uint256"},{"name":"numVotesAbstain","type":"uint256","internalType":"uint256"},{"name":"title","type":"string","internalType":"string"},{"name":"description","type":"string","internalType":"string"},{"name":"id","type":"bytes32","internalType":"bytes32"},{"name":"tokenName","type":"string","internalType":"string"},{"name":"startBlockNumber","type":"uint256","internalType":"uint256"},{"name":"originChainSelector","type":"uint256","internalType":"uint256"}],"stateMutability":"view"},{"type":"function","name":"receiveMessage","inputs":[{"name":"message","type":"tuple","internalType":"struct EquitoMessage","components":[{"name":"blockNumber","type":"uint256","internalType":"uint256"},{"name":"sourceChainSelector","type":"uint256","internalType":"uint256"},{"name":"sender","type":"tuple","internalType":"struct bytes64","components":[{"name":"lower","type":"bytes32","internalType":"bytes32"},{"name":"upper","type":"bytes32","internalType":"bytes32"}]},{"name":"destinationChainSelector","type":"uint256","internalType":"uint256"},{"name":"receiver","type":"tuple","internalType":"struct bytes64","components":[{"name":"lower","type":"bytes32","internalType":"bytes32"},{"name":"upper","type":"bytes32","internalType":"bytes32"}]},{"name":"hashedData","type":"bytes32","internalType":"bytes32"}]},{"name":"messageData","type":"bytes","internalType":"bytes"}],"outputs":[],"stateMutability":"payable"},{"type":"function","name":"renounceOwnership","inputs":[],"outputs":[],"stateMutability":"nonpayable"},{"type":"function","name":"setCreateProposalFee","inputs":[{"name":"newCreateProposalFee","type":"uint256","internalType":"uint256"}],"outputs":[],"stateMutability":"nonpayable"},{"type":"function","name":"setPeers","inputs":[{"name":"chainSelectors","type":"uint256[]","internalType":"uint256[]"},{"name":"addresses","type":"tuple[]","internalType":"struct bytes64[]","components":[{"name":"lower","type":"bytes32","internalType":"bytes32"},{"name":"upper","type":"bytes32","internalType":"bytes32"}]}],"outputs":[],"stateMutability":"nonpayable"},{"type":"function","name":"setTokenData","inputs":[{"name":"tokenName","type":"string","internalType":"string"},{"name":"chainSelectors","type":"uint256[]","internalType":"uint256[]"},{"name":"tokenAddresses","type":"address[]","internalType":"address[]"}],"outputs":[],"stateMutability":"nonpayable"},{"type":"function","name":"setVoteOnProposalFee","inputs":[{"name":"newVoteOnProposalFee","type":"uint256","internalType":"uint256"}],"outputs":[],"stateMutability":"nonpayable"},{"type":"function","name":"tokenData","inputs":[{"name":"tokenName","type":"string","internalType":"string"},{"name":"chainSelector","type":"uint256","internalType":"uint256"}],"outputs":[{"name":"tokenAddress","type":"address","internalType":"address"}],"stateMutability":"view"},{"type":"function","name":"tokenNames","inputs":[{"name":"","type":"uint256","internalType":"uint256"}],"outputs":[{"name":"","type":"string","internalType":"string"}],"stateMutability":"view"},{"type":"function","name":"transferFee","inputs":[{"name":"destination","type":"address","internalType":"address"}],"outputs":[],"stateMutability":"nonpayable"},{"type":"function","name":"transferOwnership","inputs":[{"name":"newOwner","type":"address","internalType":"address"}],"outputs":[],"stateMutability":"nonpayable"},{"type":"function","name":"updateTokenData","inputs":[{"name":"tokenName","type":"string","internalType":"string"},{"name":"chainSelector","type":"uint256","internalType":"uint256"},{"name":"tokenAddress","type":"address","internalType":"address"}],"outputs":[],"stateMutability":"nonpayable"},{"type":"function","name":"userVotes","inputs":[{"name":"user","type":"address","internalType":"address"},{"name":"proposalId","type":"bytes32","internalType":"bytes32"}],"outputs":[{"name":"votes","type":"uint256","internalType":"uint256"}],"stateMutability":"view"},{"type":"function","name":"voteOnProposal","inputs":[{"name":"destinationChainSelector","type":"uint256","internalType":"uint256"},{"name":"proposalId","type":"bytes32","internalType":"bytes32"},{"name":"numVotes","type":"uint256","internalType":"uint256"},{"name":"voteOption","type":"uint8","internalType":"enum EquitoVote.VoteOption"},{"name":"tokenAddress","type":"address","internalType":"address"},{"name":"isGetPastVotesEnabled","type":"bool","internalType":"bool"}],"outputs":[],"stateMutability":"payable"},{"type":"function","name":"voteOnProposalFee","inputs":[],"outputs":[{"name":"","type":"uint256","internalType":"uint256"}],"stateMutability":"view"},{"type":"event","name":"CreateProposalFeeUpdated","inputs":[{"name":"newCreateProposaFee","type":"uint256","indexed":false,"internalType":"uint256"}],"anonymous":false},{"type":"event","name":"CreateProposalMessageReceived","inputs":[{"name":"proposalId","type":"bytes32","indexed":false,"internalType":"bytes32"}],"anonymous":false},{"type":"event","name":"CreateProposalMessageSent","inputs":[{"name":"proposalId","type":"bytes32","indexed":true,"internalType":"bytes32"},{"name":"destinationChainSelector","type":"uint256","indexed":true,"internalType":"uint256"},{"name":"messageHash","type":"bytes32","indexed":false,"internalType":"bytes32"}],"anonymous":false},{"type":"event","name":"OwnershipTransferred","inputs":[{"name":"previousOwner","type":"address","indexed":true,"internalType":"address"},{"name":"newOwner","type":"address","indexed":true,"internalType":"address"}],"anonymous":false},{"type":"event","name":"TokenDataDeleted","inputs":[{"name":"tokenName","type":"string","indexed":false,"internalType":"string"},{"name":"chainSelectors","type":"uint256[]","indexed":false,"internalType":"uint256[]"}],"anonymous":false},{"type":"event","name":"TokenDataUpdated","inputs":[{"name":"tokenName","type":"string","indexed":true,"internalType":"string"},{"name":"chainSelectors","type":"uint256[]","indexed":false,"internalType":"uint256[]"},{"name":"tokenAddresses","type":"address[]","indexed":false,"internalType":"address[]"}],"anonymous":false},{"type":"event","name":"TokenDataUpdated","inputs":[{"name":"tokenName","type":"string","indexed":false,"internalType":"string"},{"name":"chainSelector","type":"uint256","indexed":false,"internalType":"uint256"},{"name":"tokenAddress","type":"address","indexed":false,"internalType":"address"}],"anonymous":false},{"type":"event","name":"VoteOnProposalFeeUpdated","inputs":[{"name":"newVoteOnProposalFee","type":"uint256","indexed":false,"internalType":"uint256"}],"anonymous":false},{"type":"event","name":"VoteOnProposalMessageReceived","inputs":[{"name":"proposalId","type":"bytes32","indexed":true,"internalType":"bytes32"},{"name":"numVotes","type":"uint256","indexed":false,"internalType":"uint256"},{"name":"voteOption","type":"uint8","indexed":false,"internalType":"enum EquitoVote.VoteOption"}],"anonymous":false},{"type":"event","name":"VoteOnProposalMessageSent","inputs":[{"name":"destinationChainSelector","type":"uint256","indexed":true,"internalType":"uint256"},{"name":"messageHash","type":"bytes32","indexed":false,"internalType":"bytes32"}],"anonymous":false},{"type":"error","name":"CallFailed","inputs":[{"name":"destination","type":"address","internalType":"address"}]},{"type":"error","name":"InvalidLength","inputs":[]},{"type":"error","name":"InvalidMessageSender","inputs":[]},{"type":"error","name":"InvalidProposal","inputs":[{"name":"proposalId","type":"bytes32","internalType":"bytes32"}]},{"type":"error","name":"InvalidRouter","inputs":[{"name":"router","type":"address","internalType":"address"}]},{"type":"error","name":"InvalidToken","inputs":[{"name":"tokenName","type":"string","internalType":"string"},{"name":"sourceChainSelector","type":"uint256","internalType":"uint256"},{"name":"tokenAddress","type":"address","internalType":"address"}]},{"type":"error","name":"LengthMismatch","inputs":[{"name":"firstArray","type":"uint256","internalType":"uint256"},{"name":"secondArray","type":"uint256","internalType":"uint256"}]},{"type":"error","name":"NotEnoughDelegatedTokens","inputs":[{"name":"numberUserVotes","type":"uint256","internalType":"uint256"},{"name":"numberUserDelegatedTokens","type":"uint256","internalType":"uint256"}]},{"type":"error","name":"OwnableInvalidOwner","inputs":[{"name":"owner","type":"address","internalType":"address"}]},{"type":"error","name":"OwnableUnauthorizedAccount","inputs":[{"name":"account","type":"address","internalType":"address"}]},{"type":"error","name":"ProposalNotFinished","inputs":[{"name":"proposalId","type":"bytes32","internalType":"bytes32"},{"name":"endTimestamp","type":"uint256","internalType":"uint256"}]},{"type":"error","name":"ReentrancyGuardReentrantCall","inputs":[]},{"type":"error","name":"RouterAddressCannotBeZero","inputs":[]},{"type":"error","name":"TokenAlreadySet","inputs":[{"name":"tokenName","type":"string","internalType":"string"}]}],"bytecode":{"object":"0x60a03461010557601f612e7138819003918201601f19168301916001600160401b0383118484101761010a5780849260209460405283398101031261010557516001600160a01b03808216918290036101055733156100ec576000543360018060a01b0319821617600055604051913391167f8be0079c531659141344cd1fd0a4f28419497f9722a3daafe3b4186f6b6457e0600080a381156100dd5750608052600160025564e8d4a5100060035564174876e800600455604051612d5090816101218239608051818181610af901528181610eff0152611dc80152f35b635008268360e01b8152600490fd5b604051631e4fbdf760e01b815260006004820152602490fd5b600080fd5b634e487b7160e01b600052604160045260246000fdfe6080604052600436101561001b575b361561001957600080fd5b005b6000803560e01c806305287c5e14611fe157806306a06e9c14611e675780631601947e14611c4057806320e5408214611b35578063310495ab14611ac957806332ed5b12146119c05780633a448d48146119525780634d55ff531461190957806354c41291146118ca57806359a1aae1146117c55780636a99b029146116f1578063715018a614611697578063746a7d8514611654578063811aa270146115e3578063879d182d14610eb95780638da5cb5b14610e925780639b644a2314610e595780639e9a519514610db3578063ab266e1014610d65578063af3951f014610d47578063be4f3e8f14610d13578063c9f0db3414610cf5578063d48c2c4c14610cd7578063ea8c4bcf14610c55578063ec848b0614610959578063ee7918d2146105fa578063f22d2326146105dc578063f2fde38b1461054c578063f98d123f146103f35763fda9b90814610171575061000e565b346103f05760403660031901126103f0576001600160401b036004358181116103ec576101a29036906004016120a7565b92906024926024359081116103ec576101bf903690600401612401565b936101c86129a1565b8451835b8181106103aa57505060095493835b8581106102d2575b50509091925060095480156102be57600019016101ff816121ce565b6102aa57946102679185876102367fefaf77d88e60c30240e6fe9fb733dc529848ea294d214211feaa6bf8d9410920989954612252565b8061026d575b505050600955610259604051948594604086526040860191612781565b90838203602085015261286f565b0390a180f35b601f81116001146102835750555b86388061023c565b908060009184526102a3601f60208620940160051c840160018501612813565b555561027b565b634e487b7160e01b85526004859052602485fd5b634e487b7160e01b84526031600452602484fd5b604051602061032a610336828401838152846102f2604082018a8c612781565b0394610306601f1996878101835282612359565b51902093610313866121ce565b50604051938491868301968752604083019061228c565b03908101835282612359565b51902014610346576001016101db565b91929394600019810190811161039757610362610369916121ce565b50926121ce565b91909161038557509061037b916128a3565b90829138806101e3565b634e487b7160e01b8652600486905285fd5b50634e487b7160e01b8552601160045284fd5b600190604051848682378085810160088152602092839103019020906103d0838b612657565b518852526040862080546001600160a01b0319169055016101cc565b8280fd5b80fd5b50346103f05760403660031901126103f05760043560243591828203818412838212811690848313901516176105385761042c906126c1565b91610435612711565b825b858313610450576040518061044c878261216a565b0390f35b61045a8383612657565b518452600690602091808352600a604087206104c06104da6040519461047f86612322565b8354865260019788850154908701526002840154604087015260038401546060870152600484015460808701526040516104c7816104c0816005890161228c565b0382612359565b60a087015260405192838092860161228c565b60c0840152600781015460e08401526040516104fd816104c0816008860161228c565b610100840152600981015461012084015201546101408201526105208288612657565b5261052b8187612657565b5001916000190191610437565b634e487b7160e01b82526011600452602482fd5b50346103f05760203660031901126103f057610566612033565b61056e6129a1565b6001600160a01b039081169081156105c357600054826bffffffffffffffffffffffff60a01b821617600055167f8be0079c531659141344cd1fd0a4f28419497f9722a3daafe3b4186f6b6457e0600080a380f35b604051631e4fbdf760e01b815260048101849052602490fd5b50346103f057806003193601126103f0576020600354604051908152f35b50346103f05760603660031901126103f0576001600160401b036004358181116103ec5761062c9036906004016120a7565b91906024803583811161095557610647903690600401612401565b926044359481861161095157366023870112156109515785600401359361066d856123ea565b9261067b6040519485612359565b85845260209788850186819860051b8301019136831161094d578701905b82821061092957505050600954895b8181106108d4575050865184518082036108b75750895b81811061085e57505060095494600160401b861015610839576106ea600196600181016009556121ce565b92909261084b578411610839575061070c836107068354612252565b8361282a565b8883601f81116001146107d35780610739928c916107c8575b508160011b916000199060031b1c19161790565b9055959291955b816040519283928337810188815203902094826107686040519660408852604088019061286f565b91868303828801525191828152019392875b8281106107ac5788887f13727991a0ba800afe6ee9534118a4451a8c4851ca38c5d0faababfd60c097828989038aa280f35b84516001600160a01b031686529481019493810193830161077a565b905084013538610725565b50818a52888a209084601f1981168c5b8c8a8383106108225750505010610808575b5050600183811b01905595929195610740565b830135600019600386901b60f8161c1916905538806107f5565b8589013587559095019493840193889350016107e3565b634e487b7160e01b8a52604160045289fd5b50634e487b7160e01b8a5260048a905289fd5b6001908a8a8d610897846001600160a01b0361087a828e612657565b511694604051908c8c8337818d8101600881520301902093612657565b5190528c5260408d2080546001600160a01b0319169091179055016106bf565b6044925086604051926355c5b3e360e11b84526004840152820152fd5b6040518a61032a6108f3828401838152846102f2604082018c8c612781565b51902014610903576001016106a8565b6040516311f125e160e01b8152600481018b905280610925818a018888612781565b0390fd5b81356001600160a01b0381168103610948578152908a01908a01610699565b600080fd5b8b80fd5b8680fd5b8580fd5b5060c03660031901126103f057600435906024918235604435606435946003861015610c5157608435916001600160a01b03908184168085036109485760a435948515158603610948576109ab612980565b3389526109ce6020966007885260408b20898c5288528860408c20549333612461565b806109d983866127e3565b11610c3457505033885260078552604088208689528552604088206109ff8382546127e3565b905586885260018552604088209860016040519a610a1c8c61233e565b80548c52015492868b0193845260405163313ce56760e01b81528781600481875afa8015610c29578b90610bed575b60ff915016604d8111610bda57600a0a908115610bc75790610a8792916040519960018a8c015260408b015204606089015260808801906127f0565b60a086015260a0855260c08501978589106001600160401b038a1117610bb2578495969798604052610abb60045434612634565b90610af56040519889968795869463dc20313760e01b865251600486015251908401528a6044840152608060648401526084830190612082565b03927f0000000000000000000000000000000000000000000000000000000000000000165af18015610ba7578490610b5a575b7fe9842f1c28665fd53f08cf61eac8a2490f5cc4a8c4b4f8f758c65bd289ce1a649250604051908152a2600160025580f35b508082813d8311610ba0575b610b708183612359565b81010312610948577fe9842f1c28665fd53f08cf61eac8a2490f5cc4a8c4b4f8f758c65bd289ce1a649151610b28565b503d610b66565b6040513d86823e3d90fd5b83634e487b7160e01b60005260416004526000fd5b634e487b7160e01b8b526012600452868bfd5b634e487b7160e01b8b526011600452868bfd5b508781813d8311610c22575b610c038183612359565b81010312610c1e575160ff81168103610c1e5760ff90610a4b565b8a80fd5b503d610bf9565b6040513d8d823e3d90fd5b60449250856040519263b488297560e01b84526004840152820152fd5b8480fd5b50346103f05760203660031901126103f057610c6f612033565b610c776129a1565b8180808047855af13d15610cd2573d610c8f8161237a565b90610c9d6040519283612359565b81528360203d92013e5b15610cb0575080f35b60405163201be19160e01b81526001600160a01b039091166004820152602490fd5b610ca7565b50346103f057806003193601126103f0576020600954604051908152f35b50346103f057806003193601126103f0576020600454604051908152f35b50346103f05760203660031901126103f0576040809160043581526001602052206001815491015482519182526020820152f35b50346103f057806003193601126103f0576020600554604051908152f35b50346103f05760203660031901126103f0577f46a6a65343e66c2992b251fd6d8316eb6121cca2ddd5b0ce0e0b5d928ae5e7d16020600435610da56129a1565b80600355604051908152a180f35b50346103f05760203660031901126103f057600435610dd06129a1565b610dd8612711565b610deb610de58383612657565b516129cd565b80516000198101908111610e4557808303610e0d575b83610e0a6127a2565b80f35b610e1d610e2491610e3b93612657565b519261221b565b819391549060031b91821b91600019901b19161790565b9055388080610e01565b634e487b7160e01b84526011600452602484fd5b50346103f05760203660031901126103f057600435906005548210156103f0576020610e848361221b565b90546040519160031b1c8152f35b50346103f057806003193601126103f057546040516001600160a01b039091168152602090f35b506101209036600319018281126115df576101008091126115df57610104356001600160401b0381116103ec57610ef49036906004016120a7565b926001600160a01b037f0000000000000000000000000000000000000000000000000000000000000000811633036115c757602435908183526001602052602060408420604051610f448161233e565b60018254928383520154928391015260443514908115916115ba575b5015610f7857604051637fee69a160e01b8152600490fd5b838681010391602083126115b65784356002811015610c515780611416575050506040136103f057936020820135916001600160401b0383116109485761016083820186830103126109485760405194610fd186612322565b818401803587526020808201359088015260408082013590880152606080820135908801526080808201359088015260a001356001600160401b038111610948576110239082840190868501016123cc565b60a087015260c084830101356001600160401b0381116109485761104e9082840190868501016123cc565b60c087015281840160e081810135908801528501356001600160401b0381116109485761108191830190858401016123cc565b84860152818382010135828601526101409283910101358285015260e0840151600554600160401b81101561131c576110c4610e2482600185940160055561221b565b90556000526006602052604060002092845184556020850151600185015560408501516002850155606085015160038501556080850151600485015560a08501518051906001600160401b03821161131c57611130826111276005890154612252565b6005890161282a565b602090601f83116001146113a45761116192916000918361127d575b50508160011b916000199060031b1c19161790565b60058501555b60c08501518051906001600160401b03821161131c576111978261118e6006890154612252565b6006890161282a565b602090601f8311600114611332576111c792916000918361127d5750508160011b916000199060031b1c19161790565b60068501555b60e08501516007850155840151805160088501916001600160401b03821161131c57611203826111fd8554612252565b8561282a565b602090601f831160011461128857936020969361126084600a9560e099957f61475a38b464ce3615d53948c5874f7a48bca41cb4d8b8e1c10898be9f2f53619c9960009261127d5750508160011b916000199060031b1c19161790565b90555b84015160098401558301519101550151604051908152a180f35b01519050388061114c565b90601f198316918460005260206000209260005b81811061130457508460e098947f61475a38b464ce3615d53948c5874f7a48bca41cb4d8b8e1c10898be9f2f53619b989460209b9894600a98600195106112eb575b505050811b019055611263565b015160001960f88460031b161c191690553880806112de565b9293602060018192878601518155019501930161129c565b634e487b7160e01b600052604160045260246000fd5b9190600687016000526020600020906000935b601f1984168510611389576001945083601f19811610611370575b505050811b0160068501556111cd565b015160001960f88460031b161c19169055388080611360565b81810151835560209485019460019093019290910190611345565b9190600587016000526020600020906000935b601f19841685106113fb576001945083601f198116106113e2575b505050811b016005850155611167565b015160001960f88460031b161c191690553880806113d2565b818101518355602094850194600190930192909101906113b7565b91965094506001919296501461142e575b5050505080f35b60a0136115b6576020810135926040820135926060830135926003841015610951576080013582811680910361095157611480928688526006602052611487600860408a20016040519586809261228c565b0385612359565b81801591821561157f575b505061154a575050507f543d055c2fe80dc4433bce443dcbb59bfbc94486d506a805d551b645f8cb8236916114f782604093156000146115015785875260066020526002848820016114e58482546127e3565b90555b835192835260208301906127f0565ba238808080611427565b600181036115295785875260066020526003848820016115228482546127e3565b90556114e8565b600281036114e85785875260066020526004848820016115228482546127e3565b604051633c33a57360e21b81526060600482015293508392611570906064850190612082565b91602484015260448301520390fd5b90915060405160208187516115978183858c0161205f565b81016008815203019020848a5260205260408920541614158138611492565b8380fd5b9050606435141538610f60565b6040516335fdcccd60e21b8152336004820152602490fd5b5080fd5b50346103f05760403660031901126103f0576004356001600160401b0381116115df579061162e602061161b819436906004016123cc565b816040519382858094519384920161205f565b8101600881520301902060243582528252604060018060a01b0391205416604051908152f35b50346103f05760403660031901126103f0576020906040906001600160a01b0361167c612033565b16815260078352818120602435825283522054604051908152f35b50346103f057806003193601126103f0576116b06129a1565b80546001600160a01b03198116825581906001600160a01b03167f8be0079c531659141344cd1fd0a4f28419497f9722a3daafe3b4186f6b6457e08280a380f35b50346103f05760603660031901126103f0576004356001600160401b0381116115df576117229036906004016120a7565b6044356001600160a01b03811692919060243590849003610c51577f891d24d2388c666de5c53835edbff683270ac5149b68c7c7036c1603308e1ba2936117676129a1565b60405183858237602081858101600881520301902082875260205260408620816bffffffffffffffffffffffff60a01b8254161790556117b4604051948594606086526060860191612781565b91602084015260408301520390a180f35b50346103f05760403660031901126103f0576001600160401b036004358181116103ec57366023820112156103ec578060040135908282116115b65760249060059336838560051b840101116109555782359080821161095157366023830112156109515781600401359081116109515760069036858260061b850101116118c65761184f6129a1565b6118576129a1565b8086036118b457875b86811061186b578880f35b818110156118a15780881b850186013589526001602081905260408a2082851b8601888101358255604401359082015501611860565b634e487b7160e01b895260326004528589fd5b60405163251f56a160e21b8152600490fd5b8780fd5b50346103f05760203660031901126103f057610e0a6004356118ea6129a1565b6118f2612711565b90611900610de58284612657565b60055490612c94565b50346103f05760203660031901126103f0576119236129a1565b7fb7a2c92119dba84ca177b61bfad4106a941e055dfb5bcf544e82b366f3fd6f6160206040516004358152a180f35b50346103f05760203660031901126103f05760043561196f6129a1565b611978816129cd565b81600554611984612711565b91845b82811061199a575b50610e0a9350612c94565b6119a48185612657565b5185146119b357600101611987565b9050610e0a93503861198f565b50346103f05760203660031901126103f057604080916004358152600660205220805490600181015491611ab86002830154916008611aa46006611a96600560038901549560048a0154611a248b611a1d8f51809681930161228c565b0384612359565b611a3e8b611a378f51809881930161228c565b0386612359565b60078b015497611a5f8c8f611a589051809b81930161228c565b0389612359565b600a60098d01549c01549a8e519e8f9e8f906101609682526020820152015260608d015260808c01528060a08c01528a0190612082565b9088820360c08a0152612082565b9160e0870152858203610100870152612082565b916101208401526101408301520390f35b50346103f05760203660031901126103f0576004356009548110156115df57611af1906121ce565b919091611b215760405161044c90611b0d816104c0818761228c565b604051918291602083526020830190612082565b634e487b7160e01b81526004819052602490fd5b50346103f057611b4436612049565b9091611b58611b538484612634565b6126c1565b92611b61612711565b905b838110611b78576040518061044c878261216a565b80611b8560019284612657565b5184526006600a6020918083526104c0611be8604089209260405195611baa87612322565b8454875288850154908701526002840154604087015260038401546060870152600484015460808701526040516104c7816104c0816005890161228c565b60c0840152600781015460e0840152604051611c0b816104c0816008860161228c565b61010084015260098101546101208401520154610140820152611c2e8288612657565b52611c398187612657565b5001611b63565b5060c03660031901126103f0576004356001600160401b036064358181116115b657611c709036906004016120a7565b919060843582811161095557611c8a9036906004016120a7565b90928660a4359182116103f057611d41602094611d23611d2f611dc498611ce297611cbc611d729836906004016120a7565b949095611cc7612980565b60408051338e820190815242602082015291611cf090829084015b03601f198101835282612359565b5190209d60405199611d018b612322565b428b526044358e8c01528060408c01528060608c015260808b01523691612395565b60a08801523691612395565b60c08501528860e08501523691612395565b61010082015243610120820152602435610140820152604051928391898684015260408084015260608301906120d4565b611d7e60035434612634565b858752600183526001604088206040519586948593849363dc20313760e01b85528054600486015201546024840152896044840152608060648401526084830190612082565b03917f00000000000000000000000000000000000000000000000000000000000000006001600160a01b03165af1908115610ba7578491611e34575b5060207ffa7bc04bdea04f5db18c500c045ab498d76ff3066713ede14963f5e99954642a91604051908152a3600160025580f35b90506020813d602011611e5f575b81611e4f60209383612359565b810103126115b657516020611e00565b3d9150611e42565b50346103f057611e7636612049565b611e838282949394612634565b90611ea6611e90836123ea565b92611e9e6040519485612359565b8084526123ea565b60209490601f1901845b818110611fd2575050600954611ec5816123ea565b90611ed36040519283612359565b80825260098652857f6e1540171b6c0c960b71a7020d9f60077f6af931a8bbf590da0223dacf75c7af8884015b838310611fa85750505050845b838310611f74575050505060405191838301848452825180915260408401948060408360051b870101940192955b828710611f485785850386f35b909192938280611f64600193603f198a82030186528851612082565b9601920196019592919092611f3b565b60018091611f8585859a999a612657565b51611f908289612657565b52611f9b8188612657565b5001920191959495611f0d565b60018a819260409c9b9c51611fc1816104c0818961228c565b815201920192019190989798611f00565b60608582018801528601611eb0565b50346103f05760803660031901126103f057611ffb612033565b6024356001600160a01b03811681036103ec576064359283151584036103f057602061202b856044358587612461565b604051908152f35b600435906001600160a01b038216820361094857565b6040906003190112610948576004359060243590565b60005b8381106120725750506000910152565b8181015183820152602001612062565b9060209161209b8151809281855285808601910161205f565b601f01601f1916010190565b9181601f84011215610948578235916001600160401b038311610948576020838186019501011161094857565b90612151612133612121610160855185526020860151602086015260408601516040860152606086015160608601526080860151608086015260a0860151908060a0870152850190612082565b60c085015184820360c0860152612082565b60e084015160e0840152610100808501519084830390850152612082565b9161012080820151908301526101408091015191015290565b6020808201906020835283518092526040830192602060408460051b8301019501936000915b8483106121a05750505050505090565b90919293949584806121be600193603f198682030187528a516120d4565b9801930193019194939290612190565b6009548110156122055760096000527f6e1540171b6c0c960b71a7020d9f60077f6af931a8bbf590da0223dacf75c7af0190600090565b634e487b7160e01b600052603260045260246000fd5b6005548110156122055760056000527f036b6384b5eca791c62761152d0c79bb0604c104a5fb6f4eb0703f3154bb3db00190600090565b90600182811c92168015612282575b602083101461226c57565b634e487b7160e01b600052602260045260246000fd5b91607f1691612261565b80546000939261229b82612252565b9182825260209360019160018116908160001461230357506001146122c2575b5050505050565b90939495506000929192528360002092846000945b8386106122ef575050505001019038808080806122bb565b8054858701830152940193859082016122d7565b60ff19168685015250505090151560051b0101915038808080806122bb565b61016081019081106001600160401b0382111761131c57604052565b604081019081106001600160401b0382111761131c57604052565b90601f801991011681019081106001600160401b0382111761131c57604052565b6001600160401b03811161131c57601f01601f191660200190565b9291926123a18261237a565b916123af6040519384612359565b829481845281830111610948578281602093846000960137010152565b9080601f83011215610948578160206123e793359101612395565b90565b6001600160401b03811161131c5760051b60200190565b9080601f8301121561094857602090823561241b816123ea565b936124296040519586612359565b81855260208086019260051b82010192831161094857602001905b828210612452575050505090565b81358152908301908301612444565b9092600090156125b6575060409283519160209283810190634bf5d7e9640100000000600160c01b0385871b1617871b825284815261249f8161233e565b5190209185519484860193858552601d888801527f6d6f64653d626c6f636b6e756d6265722666726f6d3d64656661756c7400000060608801526060875260808701948786106001600160401b0387111761131c5761254c9787968a52519020146000146125a157600052600683526009866000200154915b8651630748d63560e31b81526001600160a01b03909116600482015260248101929092529093849190829081906044820190565b03916001600160a01b03165afa928315612597575060009261256d57505090565b90809250813d8311612590575b6125848183612359565b81010312610948575190565b503d61257a565b513d6000823e3d90fd5b60005260068352600186600020015491612518565b6040516309ab24eb60e41b81526001600160a01b039283166004820152909390925060209183916024918391165afa9182156126285780926125f757505090565b9091506020823d602011612620575b8161261360209383612359565b810103126103f057505190565b3d9150612606565b604051903d90823e3d90fd5b9190820391821161264157565b634e487b7160e01b600052601160045260246000fd5b80518210156122055760209160051b010190565b6040519061267882612322565b81610140600091828152826020820152826040820152826060820152826080820152606060a0820152606060c08201528260e08201526060610100820152826101208201520152565b906126cb826123ea565b6126d86040519182612359565b82815280926126e9601f19916123ea565b019060005b8281106126fa57505050565b60209061270561266b565b828285010152016126ee565b6040519060055480835282602091602082019060056000527f036b6384b5eca791c62761152d0c79bb0604c104a5fb6f4eb0703f3154bb3db0936000905b8282106127675750505061276592500383612359565b565b85548452600195860195889550938101939091019061274f565b908060209392818452848401376000828201840152601f01601f1916010190565b60055480156127cd57600019908101906127bb8261221b565b909182549160031b1b19169055600555565b634e487b7160e01b600052603160045260246000fd5b9190820180921161264157565b9060038210156127fd5752565b634e487b7160e01b600052602160045260246000fd5b81811061281e575050565b60008155600101612813565b9190601f811161283957505050565b612765926000526020600020906020601f840160051c83019310612865575b601f0160051c0190612813565b9091508190612858565b90815180825260208080930193019160005b82811061288f575050505090565b835185529381019392810192600101612881565b9080821461297c576128b58154612252565b906001600160401b03821161131c576128d2826111fd8554612252565b600090601f8311600114612911576129029291600091836129065750508160011b916000199060031b1c19161790565b9055565b01549050388061114c565b815260208082208483528183209291601f1985169083905b82821061296357505090846001959493921061294a575b505050811b019055565b015460001960f88460031b161c19169055388080612940565b8495819295850154815560018091019601940190612929565b5050565b600280541461298f5760028055565b604051633ee5aeb560e01b8152600490fd5b6000546001600160a01b031633036129b557565b60405163118cdaa760e01b8152336004820152602490fd5b6129d561266b565b6000918252602091600683526040812092825184556001908084015182860155604084015160028601556060840151600386015560808401516004860155600585019160a08501519283516001600160401b0394858211612c2157612a3e826111fd8554612252565b8490601f8311600114612c3557612a6c929188918361127d5750508160011b916000199060031b1c19161790565b90555b6006860160c0860151805190858211612c2157612a90826111fd8554612252565b8490601f8311600114612bc257612abe929188918361127d5750508160011b916000199060031b1c19161790565b90555b60e085015160078701556008860193610100860151918251948511612bae57612af485612aee8854612252565b8861282a565b83601f8611600114612b4057505092806101409593612b2b93600a98969261127d5750508160011b916000199060031b1c19161790565b90555b61012081015160098501550151910155565b86835280832091959491939192601f198616915b828210612b9757505091600a979593918561014098969410612b7e575b505050811b019055612b2e565b015160001960f88460031b161c19169055388080612b71565b808886978294978701518155019601940190612b54565b634e487b7160e01b82526041600452602482fd5b8388528588208593929091601f1984168a5b89828210612c0b5750508411612bf2575b505050811b019055612ac1565b015160001960f88460031b161c19169055388080612be5565b8385015186558997909501949384019301612bd4565b634e487b7160e01b87526041600452602487fd5b8388528588208593929091601f1984168a5b89828210612c7e5750508411612c65575b505050811b019055612a6f565b015160001960f88460031b161c19169055388080612c58565b8385015186558997909501949384019301612c47565b600019820191821191908261264157818103612cb7575b505050506127656127a2565b92939192835b612cf75781811015612d0c576001810190818111612cf757612ce160019287612657565b51612cee610e248361221b565b90550183612cbd565b60246000634e487b7160e01b81526011600452fd5b505091505038808080612cab56fea2646970667358221220fc8ae68cd719613f5545b5c4c52505a9957a78172ac16199fb43419975ba64d564736f6c63430008190033","linkReferences":{}},"methodIdentifiers":{"createProposal(uint256,uint256,uint256,string,string,string)":"1601947e","createProposalFee()":"f22d2326","deleteProposalById(bytes32)":"3a448d48","deleteProposalByIndex(uint256)":"54c41291","deleteProposalByIndexOptimized(uint256)":"9e9a5195","deleteTokenData(string,uint256[])":"fda9b908","getAmountDelegatedTokens(address,address,bytes32,bool)":"05287c5e","getProposalIdsLength()":"af3951f0","getSlicedProposals(uint256,uint256)":"20e54082","getSlicedReversedProposals(int256,int256)":"f98d123f","getSlicedTokenNames(uint256,uint256)":"06a06e9c","getTokenNamesLength()":"d48c2c4c","owner()":"8da5cb5b","peers(uint256)":"be4f3e8f","proposalIds(uint256)":"9b644a23","proposals(bytes32)":"32ed5b12","receiveMessage((uint256,uint256,(bytes32,bytes32),uint256,(bytes32,bytes32),bytes32),bytes)":"879d182d","renounceOwnership()":"715018a6","setCreateProposalFee(uint256)":"ab266e10","setPeers(uint256[],(bytes32,bytes32)[])":"59a1aae1","setTokenData(string,uint256[],address[])":"ee7918d2","setVoteOnProposalFee(uint256)":"4d55ff53","tokenData(string,uint256)":"811aa270","tokenNames(uint256)":"310495ab","transferFee(address)":"ea8c4bcf","transferOwnership(address)":"f2fde38b","updateTokenData(string,uint256,address)":"6a99b029","userVotes(address,bytes32)":"746a7d85","voteOnProposal(uint256,bytes32,uint256,uint8,address,bool)":"ec848b06","voteOnProposalFee()":"c9f0db34"},"id":70}